:100000000C9434000C9446000C9446000C9446006A
:100010000C9446000C9446000C9446000C94460048
:100020000C9446000C9446000C9446000C94460038
:100030000C9446000C9446000C9457000C94460017
:100040000C9446000C9446000C9446000C94460018
:100050000C9446000C9446000C9446000C94460008
:100060000C9446000C94460011241FBECFEFD8E03C
:10007000DEBFCDBF21E0A0E0B1E001C01D92A13004
:10008000B207E1F70E946D000C9472000C9400001E
:1000900084B5826084BD85B5856085BD8CE987BDEA
:1000A000EEE6F0E0808182608083789408951F926C
:1000B0000F920FB60F9211248F93809100018F5FE2
:1000C00080930001843618F01D9A109200018F91E0
:1000D0000F900FBE0F901F901895259A2D9A0E9491
:0800E0004800FFCFF894FFCFA8
:00000001FF
