:100000000C9434000C9440000C943E000C943E0080
:100010000C943E000C943E000C943E000C943E0068
:100020000C943E000C943E000C943E000C943E0058
:100030000C943E000C943E000C943E000C943E0048
:100040000C943E000C943E000C943E000C943E0038
:100050000C943E000C943E000C943E000C943E0028
:100060000C943E000C943E0011241FBECFEFD8E04C
:10007000DEBFCDBF0E944B000C9463000C940000C7
:100080001F920F920FB60F9211241D9A0F900FBE60
:100090000F901F90189584B1806384B985B18063F7
:1000A00085B980916900836080936900E89A7894AB
:1000B0001C9A2FE382E49FE0215080409040E1F7BA
:0A00C00000C00000F5CFF894FFCF58
:00000001FF
